{
  "contractName": "Betting",
  "abi": [
    {
      "inputs": [],
      "stateMutability": "nonpayable",
      "type": "constructor"
    },
    {
      "inputs": [],
      "name": "manager",
      "outputs": [
        {
          "internalType": "address",
          "name": "",
          "type": "address"
        }
      ],
      "stateMutability": "view",
      "type": "function"
    },
    {
      "inputs": [],
      "name": "maxNoOfBets",
      "outputs": [
        {
          "internalType": "uint256",
          "name": "",
          "type": "uint256"
        }
      ],
      "stateMutability": "view",
      "type": "function"
    },
    {
      "inputs": [],
      "name": "minBet",
      "outputs": [
        {
          "internalType": "uint256",
          "name": "",
          "type": "uint256"
        }
      ],
      "stateMutability": "view",
      "type": "function"
    },
    {
      "inputs": [
        {
          "internalType": "uint256",
          "name": "",
          "type": "uint256"
        }
      ],
      "name": "players",
      "outputs": [
        {
          "internalType": "address payable",
          "name": "",
          "type": "address"
        }
      ],
      "stateMutability": "view",
      "type": "function"
    },
    {
      "inputs": [
        {
          "internalType": "uint256",
          "name": "",
          "type": "uint256"
        }
      ],
      "name": "pplBets",
      "outputs": [
        {
          "internalType": "address",
          "name": "better",
          "type": "address"
        },
        {
          "internalType": "uint256",
          "name": "BetAmt",
          "type": "uint256"
        },
        {
          "internalType": "uint256",
          "name": "betIndex",
          "type": "uint256"
        }
      ],
      "stateMutability": "view",
      "type": "function"
    },
    {
      "inputs": [],
      "name": "randomResult",
      "outputs": [
        {
          "internalType": "uint256",
          "name": "",
          "type": "uint256"
        }
      ],
      "stateMutability": "view",
      "type": "function"
    },
    {
      "inputs": [],
      "name": "tokenPrice",
      "outputs": [
        {
          "internalType": "uint256",
          "name": "",
          "type": "uint256"
        }
      ],
      "stateMutability": "view",
      "type": "function"
    },
    {
      "inputs": [
        {
          "internalType": "address",
          "name": "",
          "type": "address"
        }
      ],
      "name": "tokens",
      "outputs": [
        {
          "internalType": "uint256",
          "name": "",
          "type": "uint256"
        }
      ],
      "stateMutability": "view",
      "type": "function"
    },
    {
      "inputs": [
        {
          "internalType": "uint256",
          "name": "",
          "type": "uint256"
        }
      ],
      "name": "totalBets",
      "outputs": [
        {
          "internalType": "address",
          "name": "player",
          "type": "address"
        },
        {
          "internalType": "uint256",
          "name": "totalBetAmount",
          "type": "uint256"
        }
      ],
      "stateMutability": "view",
      "type": "function"
    },
    {
      "inputs": [
        {
          "internalType": "uint256",
          "name": "number_tokens",
          "type": "uint256"
        }
      ],
      "name": "buyTokens",
      "outputs": [],
      "stateMutability": "payable",
      "type": "function"
    },
    {
      "inputs": [],
      "name": "getNumberTokens",
      "outputs": [
        {
          "internalType": "uint256",
          "name": "",
          "type": "uint256"
        }
      ],
      "stateMutability": "view",
      "type": "function"
    },
    {
      "inputs": [
        {
          "internalType": "uint256",
          "name": "betTokens",
          "type": "uint256"
        }
      ],
      "name": "setMinBetAmt",
      "outputs": [],
      "stateMutability": "nonpayable",
      "type": "function"
    },
    {
      "inputs": [
        {
          "internalType": "uint256",
          "name": "numberParticipate",
          "type": "uint256"
        }
      ],
      "name": "setMaxBets",
      "outputs": [],
      "stateMutability": "nonpayable",
      "type": "function"
    },
    {
      "inputs": [],
      "name": "enterComp",
      "outputs": [],
      "stateMutability": "nonpayable",
      "type": "function"
    },
    {
      "inputs": [],
      "name": "getPlayers",
      "outputs": [
        {
          "internalType": "address payable[]",
          "name": "",
          "type": "address[]"
        }
      ],
      "stateMutability": "view",
      "type": "function"
    },
    {
      "inputs": [],
      "name": "getPlayerInfo",
      "outputs": [
        {
          "internalType": "address[]",
          "name": "",
          "type": "address[]"
        },
        {
          "internalType": "uint256[]",
          "name": "",
          "type": "uint256[]"
        }
      ],
      "stateMutability": "view",
      "type": "function"
    },
    {
      "inputs": [
        {
          "internalType": "uint256",
          "name": "playerIndex",
          "type": "uint256"
        },
        {
          "internalType": "uint256",
          "name": "amount",
          "type": "uint256"
        }
      ],
      "name": "bet",
      "outputs": [],
      "stateMutability": "payable",
      "type": "function"
    },
    {
      "inputs": [],
      "name": "getRandomNumber",
      "outputs": [
        {
          "internalType": "uint256",
          "name": "",
          "type": "uint256"
        }
      ],
      "stateMutability": "view",
      "type": "function"
    },
    {
      "inputs": [],
      "name": "pickWinner",
      "outputs": [],
      "stateMutability": "nonpayable",
      "type": "function"
    },
    {
      "inputs": [
        {
          "internalType": "uint256",
          "name": "withdraw_token",
          "type": "uint256"
        }
      ],
      "name": "withdrawTokens",
      "outputs": [],
      "stateMutability": "nonpayable",
      "type": "function"
    }
  ],
  "bytecode": "0x6080604052662386f26fc1000060055534801561001b57600080fd5b5033600360006101000a81548173ffffffffffffffffffffffffffffffffffffffff021916908373ffffffffffffffffffffffffffffffffffffffff160217905550611d868061006c6000396000f3fe60806040526004361061011f5760003560e01c806378461f3f116100a0578063d90d30e311610064578063d90d30e314610373578063dbdff2c11461039c578063e4860339146103c7578063e65c6e4614610404578063f71d96cb146104435761011f565b806378461f3f1461029b5780637ff9b596146102c65780638b5b9ccc146102f15780639619367d1461031c578063d1df81df146103475761011f565b806342619f66116100e757806342619f66146101fb578063481c6a751461022657806349302105146102515780635d495aea146102685780636ffcc7191461027f5761011f565b806309c6ef9014610124578063101a8d701461014f578063315a095d146101785780633610724e146101a1578063374c6e1c146101bd575b600080fd5b34801561013057600080fd5b50610139610480565b604051610146919061133a565b60405180910390f35b34801561015b57600080fd5b5061017660048036038101906101719190611386565b6104c7565b005b34801561018457600080fd5b5061019f600480360381019061019a9190611386565b610561565b005b6101bb60048036038101906101b69190611386565b6106d9565b005b3480156101c957600080fd5b506101e460048036038101906101df9190611386565b610782565b6040516101f29291906113f4565b60405180910390f35b34801561020757600080fd5b506102106107d6565b60405161021d919061133a565b60405180910390f35b34801561023257600080fd5b5061023b6107dc565b604051610248919061141d565b60405180910390f35b34801561025d57600080fd5b50610266610802565b005b34801561027457600080fd5b5061027d610911565b005b61029960048036038101906102949190611438565b610cdd565b005b3480156102a757600080fd5b506102b0610eb0565b6040516102bd919061133a565b60405180910390f35b3480156102d257600080fd5b506102db610eb6565b6040516102e8919061133a565b60405180910390f35b3480156102fd57600080fd5b50610306610ebc565b6040516103139190611548565b60405180910390f35b34801561032857600080fd5b50610331610f4a565b60405161033e919061133a565b60405180910390f35b34801561035357600080fd5b5061035c610f50565b60405161036a9291906116e6565b60405180910390f35b34801561037f57600080fd5b5061039a60048036038101906103959190611386565b6110d1565b005b3480156103a857600080fd5b506103b161116b565b6040516103be919061133a565b60405180910390f35b3480156103d357600080fd5b506103ee60048036038101906103e99190611749565b6111c0565b6040516103fb919061133a565b60405180910390f35b34801561041057600080fd5b5061042b60048036038101906104269190611386565b6111d8565b60405161043a93929190611776565b60405180910390f35b34801561044f57600080fd5b5061046a60048036038101906104659190611386565b611232565b60405161047791906117bc565b60405180910390f35b6000600660003373ffffffffffffffffffffffffffffffffffffffff1673ffffffffffffffffffffffffffffffffffffffff16815260200190815260200160002054905090565b600360009054906101000a900473ffffffffffffffffffffffffffffffffffffffff1673ffffffffffffffffffffffffffffffffffffffff163373ffffffffffffffffffffffffffffffffffffffff1614610557576040517f08c379a000000000000000000000000000000000000000000000000000000000815260040161054e90611834565b60405180910390fd5b8060028190555050565b600660003373ffffffffffffffffffffffffffffffffffffffff1673ffffffffffffffffffffffffffffffffffffffff168152602001908152602001600020548111156105e3576040517f08c379a00000000000000000000000000000000000000000000000000000000081526004016105da906118a0565b60405180910390fd5b6000600554826105f391906118ef565b905080471015610638576040517f08c379a000000000000000000000000000000000000000000000000000000000815260040161062f90611995565b60405180910390fd5b3373ffffffffffffffffffffffffffffffffffffffff166108fc829081150290604051600060405180830381858888f1935050505015801561067e573d6000803e3d6000fd5b5081600660003373ffffffffffffffffffffffffffffffffffffffff1673ffffffffffffffffffffffffffffffffffffffff16815260200190815260200160002060008282546106ce91906119b5565b925050819055505050565b806005546106e791906118ef565b341015610729576040517f08c379a000000000000000000000000000000000000000000000000000000000815260040161072090611a35565b60405180910390fd5b80600660003373ffffffffffffffffffffffffffffffffffffffff1673ffffffffffffffffffffffffffffffffffffffff16815260200190815260200160002060008282546107789190611a55565b9250508190555050565b6008818154811061079257600080fd5b90600052602060002090600202016000915090508060000160009054906101000a900473ffffffffffffffffffffffffffffffffffffffff16908060010154905082565b60045481565b600360009054906101000a900473ffffffffffffffffffffffffffffffffffffffff1681565b6000339080600181540180825580915050600190039060005260206000200160009091909190916101000a81548173ffffffffffffffffffffffffffffffffffffffff021916908373ffffffffffffffffffffffffffffffffffffffff160217905550600860405180604001604052803373ffffffffffffffffffffffffffffffffffffffff1681526020016000815250908060018154018082558091505060019003906000526020600020906002020160009091909190915060008201518160000160006101000a81548173ffffffffffffffffffffffffffffffffffffffff021916908373ffffffffffffffffffffffffffffffffffffffff160217905550602082015181600101555050565b600360009054906101000a900473ffffffffffffffffffffffffffffffffffffffff1673ffffffffffffffffffffffffffffffffffffffff163373ffffffffffffffffffffffffffffffffffffffff16146109a1576040517f08c379a000000000000000000000000000000000000000000000000000000000815260040161099890611834565b60405180910390fd5b60008080549050116109e8576040517f08c379a00000000000000000000000000000000000000000000000000000000081526004016109df90611af7565b60405180910390fd5b6109f061116b565b60048190555060008080549050600454610a0a9190611b46565b90506000805b600080549050811015610a635760088181548110610a3157610a30611b77565b5b90600052602060002090600202016001015482610a4e9190611a55565b91508080610a5b90611ba6565b915050610a10565b506000606482600a610a7591906118ef565b610a7f9190611bef565b90508060066000600360009054906101000a900473ffffffffffffffffffffffffffffffffffffffff1673ffffffffffffffffffffffffffffffffffffffff1673ffffffffffffffffffffffffffffffffffffffff1681526020019081526020016000206000828254610af29190611a55565b9250508190555060008183610b0791906119b5565b90506000805b600780549050811015610b69578560078281548110610b2f57610b2e611b77565b5b9060005260206000209060030201600201541415610b56578180610b5290611ba6565b9250505b8080610b6190611ba6565b915050610b0d565b5060008183610b789190611bef565b905060005b600780549050811015610c66578660078281548110610b9f57610b9e611b77565b5b9060005260206000209060030201600201541415610c5357816006600060078481548110610bd057610bcf611b77565b5b906000526020600020906003020160000160009054906101000a900473ffffffffffffffffffffffffffffffffffffffff1673ffffffffffffffffffffffffffffffffffffffff1673ffffffffffffffffffffffffffffffffffffffff1681526020019081526020016000206000828254610c4b9190611a55565b925050819055505b8080610c5e90611ba6565b915050610b7d565b5060005b600880549050811015610cb557600060088281548110610c8d57610c8c611b77565b5b9060005260206000209060020201600101819055508080610cad90611ba6565b915050610c6a565b5060076000610cc49190611271565b600080610cd19190611295565b60009150505050505050565b600154600660003373ffffffffffffffffffffffffffffffffffffffff1673ffffffffffffffffffffffffffffffffffffffff168152602001908152602001600020541015610d61576040517f08c379a0000000000000000000000000000000000000000000000000000000008152600401610d5890611c6c565b60405180910390fd5b8060088381548110610d7657610d75611b77565b5b90600052602060002090600202016001016000828254610d969190611a55565b92505081905550600760405180606001604052803373ffffffffffffffffffffffffffffffffffffffff16815260200183815260200184815250908060018154018082558091505060019003906000526020600020906003020160009091909190915060008201518160000160006101000a81548173ffffffffffffffffffffffffffffffffffffffff021916908373ffffffffffffffffffffffffffffffffffffffff1602179055506020820151816001015560408201518160020155505080600660003373ffffffffffffffffffffffffffffffffffffffff1673ffffffffffffffffffffffffffffffffffffffff1681526020019081526020016000206000828254610ea591906119b5565b925050819055505050565b60025481565b60055481565b60606000805480602002602001604051908101604052809291908181526020018280548015610f4057602002820191906000526020600020905b8160009054906101000a900473ffffffffffffffffffffffffffffffffffffffff1673ffffffffffffffffffffffffffffffffffffffff1681526020019060010190808311610ef6575b5050505050905090565b60015481565b6060806000808054905067ffffffffffffffff811115610f7357610f72611c8c565b5b604051908082528060200260200182016040528015610fa15781602001602082028036833780820191505090505b5090506000808054905067ffffffffffffffff811115610fc457610fc3611c8c565b5b604051908082528060200260200182016040528015610ff25781602001602082028036833780820191505090505b50905060005b6000805490508110156110c4576000818154811061101957611018611b77565b5b9060005260206000200160009054906101000a900473ffffffffffffffffffffffffffffffffffffffff1683828151811061105757611056611b77565b5b602002602001019073ffffffffffffffffffffffffffffffffffffffff16908173ffffffffffffffffffffffffffffffffffffffff1681525050808282815181106110a5576110a4611b77565b5b60200260200101818152505080806110bc90611ba6565b915050610ff8565b5081819350935050509091565b600360009054906101000a900473ffffffffffffffffffffffffffffffffffffffff1673ffffffffffffffffffffffffffffffffffffffff163373ffffffffffffffffffffffffffffffffffffffff1614611161576040517f08c379a000000000000000000000000000000000000000000000000000000000815260040161115890611834565b60405180910390fd5b8060018190555050565b6000600360009054906101000a900473ffffffffffffffffffffffffffffffffffffffff16426040516020016111a2929190611d24565b6040516020818303038152906040528051906020012060001c905090565b60066020528060005260406000206000915090505481565b600781815481106111e857600080fd5b90600052602060002090600302016000915090508060000160009054906101000a900473ffffffffffffffffffffffffffffffffffffffff16908060010154908060020154905083565b6000818154811061124257600080fd5b906000526020600020016000915054906101000a900473ffffffffffffffffffffffffffffffffffffffff1681565b508054600082556003029060005260206000209081019061129291906112b6565b50565b50805460008255906000526020600020908101906112b39190611304565b50565b5b8082111561130057600080820160006101000a81549073ffffffffffffffffffffffffffffffffffffffff021916905560018201600090556002820160009055506003016112b7565b5090565b5b8082111561131d576000816000905550600101611305565b5090565b6000819050919050565b61133481611321565b82525050565b600060208201905061134f600083018461132b565b92915050565b600080fd5b61136381611321565b811461136e57600080fd5b50565b6000813590506113808161135a565b92915050565b60006020828403121561139c5761139b611355565b5b60006113aa84828501611371565b91505092915050565b600073ffffffffffffffffffffffffffffffffffffffff82169050919050565b60006113de826113b3565b9050919050565b6113ee816113d3565b82525050565b600060408201905061140960008301856113e5565b611416602083018461132b565b9392505050565b600060208201905061143260008301846113e5565b92915050565b6000806040838503121561144f5761144e611355565b5b600061145d85828601611371565b925050602061146e85828601611371565b9150509250929050565b600081519050919050565b600082825260208201905092915050565b6000819050602082019050919050565b60006114af826113b3565b9050919050565b6114bf816114a4565b82525050565b60006114d183836114b6565b60208301905092915050565b6000602082019050919050565b60006114f582611478565b6114ff8185611483565b935061150a83611494565b8060005b8381101561153b57815161152288826114c5565b975061152d836114dd565b92505060018101905061150e565b5085935050505092915050565b6000602082019050818103600083015261156281846114ea565b905092915050565b600081519050919050565b600082825260208201905092915050565b6000819050602082019050919050565b61159f816113d3565b82525050565b60006115b18383611596565b60208301905092915050565b6000602082019050919050565b60006115d58261156a565b6115df8185611575565b93506115ea83611586565b8060005b8381101561161b57815161160288826115a5565b975061160d836115bd565b9250506001810190506115ee565b5085935050505092915050565b600081519050919050565b600082825260208201905092915050565b6000819050602082019050919050565b61165d81611321565b82525050565b600061166f8383611654565b60208301905092915050565b6000602082019050919050565b600061169382611628565b61169d8185611633565b93506116a883611644565b8060005b838110156116d95781516116c08882611663565b97506116cb8361167b565b9250506001810190506116ac565b5085935050505092915050565b6000604082019050818103600083015261170081856115ca565b905081810360208301526117148184611688565b90509392505050565b611726816113d3565b811461173157600080fd5b50565b6000813590506117438161171d565b92915050565b60006020828403121561175f5761175e611355565b5b600061176d84828501611734565b91505092915050565b600060608201905061178b60008301866113e5565b611798602083018561132b565b6117a5604083018461132b565b949350505050565b6117b6816114a4565b82525050565b60006020820190506117d160008301846117ad565b92915050565b600082825260208201905092915050565b7f4d616e61676572206f6e6c792061726561000000000000000000000000000000600082015250565b600061181e6011836117d7565b9150611829826117e8565b602082019050919050565b6000602082019050818103600083015261184d81611811565b9050919050565b7f4e6f7420656e6f75676820746f6b656e73000000000000000000000000000000600082015250565b600061188a6011836117d7565b915061189582611854565b602082019050919050565b600060208201905081810360008301526118b98161187d565b9050919050565b7f4e487b7100000000000000000000000000000000000000000000000000000000600052601160045260246000fd5b60006118fa82611321565b915061190583611321565b9250817fffffffffffffffffffffffffffffffffffffffffffffffffffffffffffffffff048311821515161561193e5761193d6118c0565b5b828202905092915050565b7f436f6e74726163742062616c616e636520697320696e73756666696369656e74600082015250565b600061197f6020836117d7565b915061198a82611949565b602082019050919050565b600060208201905081810360008301526119ae81611972565b9050919050565b60006119c082611321565b91506119cb83611321565b9250828210156119de576119dd6118c0565b5b828203905092915050565b7f696e73756666696369656e742066756e64730000000000000000000000000000600082015250565b6000611a1f6012836117d7565b9150611a2a826119e9565b602082019050919050565b60006020820190508181036000830152611a4e81611a12565b9050919050565b6000611a6082611321565b9150611a6b83611321565b9250827fffffffffffffffffffffffffffffffffffffffffffffffffffffffffffffffff03821115611aa057611a9f6118c0565b5b828201905092915050565b7f4e6f20706c617965727320696e2074686520636f6d7065746974696f6e000000600082015250565b6000611ae1601d836117d7565b9150611aec82611aab565b602082019050919050565b60006020820190508181036000830152611b1081611ad4565b9050919050565b7f4e487b7100000000000000000000000000000000000000000000000000000000600052601260045260246000fd5b6000611b5182611321565b9150611b5c83611321565b925082611b6c57611b6b611b17565b5b828206905092915050565b7f4e487b7100000000000000000000000000000000000000000000000000000000600052603260045260246000fd5b6000611bb182611321565b91507fffffffffffffffffffffffffffffffffffffffffffffffffffffffffffffffff821415611be457611be36118c0565b5b600182019050919050565b6000611bfa82611321565b9150611c0583611321565b925082611c1557611c14611b17565b5b828204905092915050565b7f696e73756666696369656e742062657420616d6f756e74000000000000000000600082015250565b6000611c566017836117d7565b9150611c6182611c20565b602082019050919050565b60006020820190508181036000830152611c8581611c49565b9050919050565b7f4e487b7100000000000000000000000000000000000000000000000000000000600052604160045260246000fd5b60008160601b9050919050565b6000611cd382611cbb565b9050919050565b6000611ce582611cc8565b9050919050565b611cfd611cf8826113d3565b611cda565b82525050565b6000819050919050565b611d1e611d1982611321565b611d03565b82525050565b6000611d308285611cec565b601482019150611d408284611d0d565b602082019150819050939250505056fea2646970667358221220618a46b272fc8c4cf35dc3973f062a77917934c4be61c3e9be9ab6691e94989564736f6c634300080b0033",
  "immutableReferences": {},
  "source": "//SPDX-License-Identifier: MIT\r\npragma solidity ^0.8.11;\r\n\r\ncontract Betting {\r\n    address payable[] public players;\r\n    uint public minBet;\r\n    uint public maxNoOfBets;\r\n    address public manager;\r\n    uint public randomResult;\r\n    uint public tokenPrice = 0.01 ether;\r\n    mapping(address => uint) public tokens;\r\n\r\n    struct BetInfo {\r\n        address player;\r\n        uint totalBetAmount;\r\n    }\r\n\r\n    struct pplBetInfo {\r\n        address better;\r\n        uint BetAmt;\r\n        uint betIndex;\r\n    }\r\n\r\n    pplBetInfo[] public pplBets;\r\n    BetInfo[] public totalBets;\r\n\r\n    constructor() {\r\n        manager = msg.sender;\r\n    }\r\n\r\n    modifier onlyManager() {\r\n        require(msg.sender == manager, \"Manager only area\");\r\n        _;\r\n    }\r\n\r\n    function buyTokens(uint number_tokens) payable public {\r\n        require(msg.value >= tokenPrice * number_tokens, \"insufficient funds\");\r\n        tokens[msg.sender] += number_tokens;\r\n    }\r\n\r\n    function getNumberTokens() public view returns(uint) {\r\n        return tokens[msg.sender];\r\n    }\r\n\r\n    function setMinBetAmt(uint betTokens) public onlyManager {\r\n        minBet = betTokens;\r\n    }\r\n\r\n    function setMaxBets(uint numberParticipate) public onlyManager {\r\n        maxNoOfBets = numberParticipate;\r\n    }\r\n\r\n    function enterComp() public {\r\n        players.push(payable(msg.sender));\r\n        totalBets.push(BetInfo(msg.sender, 0));\r\n    }\r\n\r\n    function getPlayers() public view returns(address payable[] memory) {\r\n        return players;\r\n    }\r\n\r\n    function getPlayerInfo() public view returns (address[] memory, uint[] memory) {\r\n        address[] memory playerAddresses = new address[](players.length);\r\n        uint[] memory playerIndexes = new uint[](players.length);\r\n\r\n        for (uint i = 0; i < players.length; i++) {\r\n            playerAddresses[i] = players[i];\r\n            playerIndexes[i] = i;\r\n        }\r\n\r\n        return (playerAddresses, playerIndexes);\r\n    }\r\n\r\n    function bet(uint playerIndex, uint amount) payable public {\r\n        require(tokens[msg.sender] >= minBet, \"insufficient bet amount\");\r\n\r\n        totalBets[playerIndex].totalBetAmount += amount;\r\n        pplBets.push(pplBetInfo(msg.sender, amount, playerIndex));\r\n\r\n        tokens[msg.sender] -= amount;\r\n    }\r\n\r\n    function getRandomNumber() public view returns(uint) {\r\n        return uint(keccak256(abi.encodePacked(manager, block.timestamp)));\r\n    }\r\n\r\n    function pickWinner() public onlyManager {\r\n        require(players.length > 0, \"No players in the competition\");\r\n\r\n        randomResult = getRandomNumber();\r\n        uint winnerIndex = randomResult % players.length; //winner index\r\n\r\n        uint total_moneyEarned = 0;\r\n\r\n        for (uint i = 0; i < players.length; i++) {\r\n            total_moneyEarned += totalBets[i].totalBetAmount;\r\n        }\r\n\r\n        uint house_commission = (10 * total_moneyEarned) / 100;\r\n        tokens[manager] += house_commission;\r\n        uint winnings = total_moneyEarned - house_commission;\r\n\r\n        uint count = 0;\r\n        for (uint i = 0; i < pplBets.length; i++) {\r\n            if (pplBets[i].betIndex == winnerIndex) {\r\n                count++;\r\n            }\r\n        }\r\n\r\n        uint indv_winnings = (winnings / count);\r\n\r\n        for (uint i = 0; i < pplBets.length; i++) {\r\n            if (pplBets[i].betIndex == winnerIndex) {\r\n                tokens[pplBets[i].better] += indv_winnings;\r\n            }\r\n        }\r\n\r\n        //reset\r\n        for (uint i = 0; i < totalBets.length; i++) {\r\n            totalBets[i].totalBetAmount = 0;\r\n        }\r\n        delete pplBets;\r\n        delete players;\r\n        count = 0;\r\n    }\r\n\r\n    function withdrawTokens(uint withdraw_token) public {\r\n        require(withdraw_token <= tokens[msg.sender], \"Not enough tokens\");\r\n\r\n        uint withdrawAmount = withdraw_token * tokenPrice;\r\n        require(address(this).balance >= withdrawAmount, \"Contract balance is insufficient\");\r\n\r\n        // Transfer ETH to the user\r\n        payable(msg.sender).transfer(withdrawAmount);\r\n\r\n        tokens[msg.sender] -= withdraw_token;\r\n    }\r\n}\r\n",
  "sourcePath": "E:\\GitUpload\\Token-based-Online-Betting-Platform-dApp-ETH\\smart_contract\\contracts\\Betting.sol",
  "compiler": {
    "name": "solc",
    "version": "0.8.11+commit.d7f03943.Emscripten.clang"
  },
  "schemaVersion": "3.4.14",
  "updatedAt": "2023-12-21T14:13:10.260Z",
  "devdoc": {
    "kind": "dev",
    "methods": {},
    "version": 1
  },
  "userdoc": {
    "kind": "user",
    "methods": {},
    "version": 1
  }
}