{
    "_format": "hh-sol-artifact-1",
    "contractName": "Betting",
    "sourceName": "contracts/Betting.sol",
    "abi": [
        {
            "inputs": [],
            "stateMutability": "nonpayable",
            "type": "constructor"
        },
        {
            "inputs": [
                {
                    "internalType": "address payable",
                    "name": "_player",
                    "type": "address"
                },
                {
                    "internalType": "uint256",
                    "name": "_guessPos",
                    "type": "uint256"
                },
                {
                    "internalType": "uint256",
                    "name": "_amount",
                    "type": "uint256"
                }
            ],
            "name": "bet",
            "outputs": [],
            "stateMutability": "nonpayable",
            "type": "function"
        },
        {
            "inputs": [
                {
                    "internalType": "address",
                    "name": "",
                    "type": "address"
                }
            ],
            "name": "betAlreadyPlaced",
            "outputs": [
                {
                    "internalType": "bool",
                    "name": "",
                    "type": "bool"
                }
            ],
            "stateMutability": "view",
            "type": "function"
        },
        {
            "inputs": [
                {
                    "internalType": "uint256",
                    "name": "number_tokens",
                    "type": "uint256"
                }
            ],
            "name": "buyTokens",
            "outputs": [],
            "stateMutability": "payable",
            "type": "function"
        },
        {
            "inputs": [],
            "name": "enterComp",
            "outputs": [],
            "stateMutability": "nonpayable",
            "type": "function"
        },
        {
            "inputs": [],
            "name": "getNumberTokens",
            "outputs": [
                {
                    "internalType": "uint256",
                    "name": "",
                    "type": "uint256"
                }
            ],
            "stateMutability": "view",
            "type": "function"
        },
        {
            "inputs": [],
            "name": "getPlayers",
            "outputs": [
                {
                    "internalType": "address payable[]",
                    "name": "",
                    "type": "address[]"
                }
            ],
            "stateMutability": "view",
            "type": "function"
        },
        {
            "inputs": [],
            "name": "getTotalPool",
            "outputs": [
                {
                    "internalType": "uint256",
                    "name": "",
                    "type": "uint256"
                }
            ],
            "stateMutability": "nonpayable",
            "type": "function"
        },
        {
            "inputs": [],
            "name": "manager",
            "outputs": [
                {
                    "internalType": "address",
                    "name": "",
                    "type": "address"
                }
            ],
            "stateMutability": "view",
            "type": "function"
        },
        {
            "inputs": [],
            "name": "minBet",
            "outputs": [
                {
                    "internalType": "uint256",
                    "name": "",
                    "type": "uint256"
                }
            ],
            "stateMutability": "view",
            "type": "function"
        },
        {
            "inputs": [],
            "name": "pickWinner",
            "outputs": [],
            "stateMutability": "nonpayable",
            "type": "function"
        },
        {
            "inputs": [
                {
                    "internalType": "uint256",
                    "name": "",
                    "type": "uint256"
                }
            ],
            "name": "players",
            "outputs": [
                {
                    "internalType": "address payable",
                    "name": "",
                    "type": "address"
                }
            ],
            "stateMutability": "view",
            "type": "function"
        },
        {
            "inputs": [],
            "name": "randomResult",
            "outputs": [
                {
                    "internalType": "uint256",
                    "name": "",
                    "type": "uint256"
                }
            ],
            "stateMutability": "view",
            "type": "function"
        },
        {
            "inputs": [
                {
                    "internalType": "uint256",
                    "name": "betTokens",
                    "type": "uint256"
                }
            ],
            "name": "setMinBetAmt",
            "outputs": [],
            "stateMutability": "nonpayable",
            "type": "function"
        },
        {
            "inputs": [],
            "name": "tokenPrice",
            "outputs": [
                {
                    "internalType": "uint256",
                    "name": "",
                    "type": "uint256"
                }
            ],
            "stateMutability": "view",
            "type": "function"
        },
        {
            "inputs": [
                {
                    "internalType": "address",
                    "name": "",
                    "type": "address"
                }
            ],
            "name": "tokens",
            "outputs": [
                {
                    "internalType": "uint256",
                    "name": "",
                    "type": "uint256"
                }
            ],
            "stateMutability": "view",
            "type": "function"
        },
        {
            "inputs": [
                {
                    "internalType": "uint256",
                    "name": "",
                    "type": "uint256"
                }
            ],
            "name": "totalBets",
            "outputs": [
                {
                    "internalType": "address",
                    "name": "better",
                    "type": "address"
                },
                {
                    "internalType": "address",
                    "name": "player",
                    "type": "address"
                },
                {
                    "internalType": "uint256",
                    "name": "BetAmount",
                    "type": "uint256"
                },
                {
                    "internalType": "uint256",
                    "name": "guessPosition",
                    "type": "uint256"
                }
            ],
            "stateMutability": "view",
            "type": "function"
        },
        {
            "inputs": [],
            "name": "totalTokens",
            "outputs": [
                {
                    "internalType": "uint256",
                    "name": "",
                    "type": "uint256"
                }
            ],
            "stateMutability": "view",
            "type": "function"
        },
        {
            "inputs": [
                {
                    "internalType": "uint256",
                    "name": "withdraw_token",
                    "type": "uint256"
                }
            ],
            "name": "withdrawTokens",
            "outputs": [],
            "stateMutability": "nonpayable",
            "type": "function"
        }
    ],
    "bytecode": "0x608060405267016345785d8a000060045534801561001c57600080fd5b5033600260006101000a81548173ffffffffffffffffffffffffffffffffffffffff021916908373ffffffffffffffffffffffffffffffffffffffff160217905550611b218061006d6000396000f3fe6080604052600436106101095760003560e01c8063789f51a01161009557806391967c971161006457806391967c97146103175780639619367d14610354578063d90d30e31461037f578063e4860339146103a8578063f71d96cb146103e557610109565b8063789f51a01461026d5780637e1c0c09146102965780637ff9b596146102c15780638b5b9ccc146102ec57610109565b806342619f66116100dc57806342619f66146101be578063481c6a75146101e957806349302105146102145780635d495aea1461022b57806375f4d6771461024257610109565b806309c6ef901461010e578063315a095d146101395780633610724e14610162578063374c6e1c1461017e575b600080fd5b34801561011a57600080fd5b50610123610422565b60405161013091906111c0565b60405180910390f35b34801561014557600080fd5b50610160600480360381019061015b919061120c565b610469565b005b61017c6004803603810190610177919061120c565b6105e1565b005b34801561018a57600080fd5b506101a560048036038101906101a0919061120c565b61068a565b6040516101b5949392919061127a565b60405180910390f35b3480156101ca57600080fd5b506101d361070a565b6040516101e091906111c0565b60405180910390f35b3480156101f557600080fd5b506101fe610710565b60405161020b91906112bf565b60405180910390f35b34801561022057600080fd5b50610229610736565b005b34801561023757600080fd5b5061024061079b565b005b34801561024e57600080fd5b50610257610b0c565b60405161026491906111c0565b60405180910390f35b34801561027957600080fd5b50610294600480360381019061028f9190611318565b610b7b565b005b3480156102a257600080fd5b506102ab610ea5565b6040516102b891906111c0565b60405180910390f35b3480156102cd57600080fd5b506102d6610eab565b6040516102e391906111c0565b60405180910390f35b3480156102f857600080fd5b50610301610eb1565b60405161030e9190611429565b60405180910390f35b34801561032357600080fd5b5061033e60048036038101906103399190611477565b610f3f565b60405161034b91906114bf565b60405180910390f35b34801561036057600080fd5b50610369610f5f565b60405161037691906111c0565b60405180910390f35b34801561038b57600080fd5b506103a660048036038101906103a1919061120c565b610f65565b005b3480156103b457600080fd5b506103cf60048036038101906103ca9190611477565b610fff565b6040516103dc91906111c0565b60405180910390f35b3480156103f157600080fd5b5061040c6004803603810190610407919061120c565b611017565b60405161041991906114e9565b60405180910390f35b6000600660003373ffffffffffffffffffffffffffffffffffffffff1673ffffffffffffffffffffffffffffffffffffffff16815260200190815260200160002054905090565b600660003373ffffffffffffffffffffffffffffffffffffffff1673ffffffffffffffffffffffffffffffffffffffff168152602001908152602001600020548111156104eb576040517f08c379a00000000000000000000000000000000000000000000000000000000081526004016104e290611561565b60405180910390fd5b6000600454826104fb91906115b0565b905080471015610540576040517f08c379a00000000000000000000000000000000000000000000000000000000081526004016105379061163e565b60405180910390fd5b3373ffffffffffffffffffffffffffffffffffffffff166108fc829081150290604051600060405180830381858888f19350505050158015610586573d6000803e3d6000fd5b5081600660003373ffffffffffffffffffffffffffffffffffffffff1673ffffffffffffffffffffffffffffffffffffffff16815260200190815260200160002060008282546105d6919061165e565b925050819055505050565b806004546105ef91906115b0565b341015610631576040517f08c379a0000000000000000000000000000000000000000000000000000000008152600401610628906116de565b60405180910390fd5b80600660003373ffffffffffffffffffffffffffffffffffffffff1673ffffffffffffffffffffffffffffffffffffffff168152602001908152602001600020600082825461068091906116fe565b9250508190555050565b6008818154811061069a57600080fd5b90600052602060002090600402016000915090508060000160009054906101000a900473ffffffffffffffffffffffffffffffffffffffff16908060010160009054906101000a900473ffffffffffffffffffffffffffffffffffffffff16908060020154908060030154905084565b60035481565b600260009054906101000a900473ffffffffffffffffffffffffffffffffffffffff1681565b6000339080600181540180825580915050600190039060005260206000200160009091909190916101000a81548173ffffffffffffffffffffffffffffffffffffffff021916908373ffffffffffffffffffffffffffffffffffffffff160217905550565b600260009054906101000a900473ffffffffffffffffffffffffffffffffffffffff1673ffffffffffffffffffffffffffffffffffffffff163373ffffffffffffffffffffffffffffffffffffffff161461082b576040517f08c379a00000000000000000000000000000000000000000000000000000000081526004016108229061177e565b60405180910390fd5b6000808054905011610872576040517f08c379a0000000000000000000000000000000000000000000000000000000008152600401610869906117ea565b60405180910390fd5b61087a611056565b600381905550600080805490506003546108949190611839565b905060006108a0610b0c565b905060006064600a836108b391906115b0565b6108bd919061186a565b90508060066000600260009054906101000a900473ffffffffffffffffffffffffffffffffffffffff1673ffffffffffffffffffffffffffffffffffffffff1673ffffffffffffffffffffffffffffffffffffffff168152602001908152602001600020600082825461093091906116fe565b9250508190555060008183610945919061165e565b9050600080600090505b6008805490508110156109cf5785600882815481106109715761097061189b565b5b906000526020600020906004020160030154036109bc576008818154811061099c5761099b61189b565b5b906000526020600020906004020160020154826109b991906116fe565b91505b80806109c7906118ca565b91505061094f565b5060005b600880549050811015610afc5785600882815481106109f5576109f461189b565b5b90600052602060002090600402016003015403610ae9576000828460088481548110610a2457610a2361189b565b5b906000526020600020906004020160020154610a4091906115b0565b610a4a919061186a565b9050806006600060088581548110610a6557610a6461189b565b5b906000526020600020906004020160000160009054906101000a900473ffffffffffffffffffffffffffffffffffffffff1673ffffffffffffffffffffffffffffffffffffffff1673ffffffffffffffffffffffffffffffffffffffff1681526020019081526020016000206000828254610ae091906116fe565b92505081905550505b8080610af4906118ca565b9150506109d3565b50610b056110ab565b5050505050565b600080600090505b600880549050811015610b725760088181548110610b3557610b3461189b565b5b90600052602060002090600402016002015460056000828254610b5891906116fe565b925050819055508080610b6a906118ca565b915050610b14565b50600554905090565b600154600660003373ffffffffffffffffffffffffffffffffffffffff1673ffffffffffffffffffffffffffffffffffffffff168152602001908152602001600020541015610bff576040517f08c379a0000000000000000000000000000000000000000000000000000000008152600401610bf69061195e565b60405180910390fd5b6001548111610c43576040517f08c379a0000000000000000000000000000000000000000000000000000000008152600401610c3a906119ca565b60405180910390fd5b600760003373ffffffffffffffffffffffffffffffffffffffff1673ffffffffffffffffffffffffffffffffffffffff16815260200190815260200160002060009054906101000a900460ff1615610cd0576040517f08c379a0000000000000000000000000000000000000000000000000000000008152600401610cc790611a36565b60405180910390fd5b80600660003373ffffffffffffffffffffffffffffffffffffffff1673ffffffffffffffffffffffffffffffffffffffff1681526020019081526020016000206000828254610d1f919061165e565b92505081905550600060405180608001604052803373ffffffffffffffffffffffffffffffffffffffff1681526020018573ffffffffffffffffffffffffffffffffffffffff1681526020018381526020018481525090506001600760003373ffffffffffffffffffffffffffffffffffffffff1673ffffffffffffffffffffffffffffffffffffffff16815260200190815260200160002060006101000a81548160ff021916908315150217905550600881908060018154018082558091505060019003906000526020600020906004020160009091909190915060008201518160000160006101000a81548173ffffffffffffffffffffffffffffffffffffffff021916908373ffffffffffffffffffffffffffffffffffffffff16021790555060208201518160010160006101000a81548173ffffffffffffffffffffffffffffffffffffffff021916908373ffffffffffffffffffffffffffffffffffffffff1602179055506040820151816002015560608201518160030155505050505050565b60055481565b60045481565b60606000805480602002602001604051908101604052809291908181526020018280548015610f3557602002820191906000526020600020905b8160009054906101000a900473ffffffffffffffffffffffffffffffffffffffff1673ffffffffffffffffffffffffffffffffffffffff1681526020019060010190808311610eeb575b5050505050905090565b60076020528060005260406000206000915054906101000a900460ff1681565b60015481565b600260009054906101000a900473ffffffffffffffffffffffffffffffffffffffff1673ffffffffffffffffffffffffffffffffffffffff163373ffffffffffffffffffffffffffffffffffffffff1614610ff5576040517f08c379a0000000000000000000000000000000000000000000000000000000008152600401610fec9061177e565b60405180910390fd5b8060018190555050565b60066020528060005260406000206000915090505481565b6000818154811061102757600080fd5b906000526020600020016000915054906101000a900473ffffffffffffffffffffffffffffffffffffffff1681565b6000600260009054906101000a900473ffffffffffffffffffffffffffffffffffffffff164260405160200161108d929190611abf565b6040516020818303038152906040528051906020012060001c905090565b6000806110b891906110d0565b600860006110c691906110f1565b6000600381905550565b50805460008255906000526020600020908101906110ee9190611115565b50565b50805460008255600402906000526020600020908101906111129190611132565b50565b5b8082111561112e576000816000905550600101611116565b5090565b5b808211156111a357600080820160006101000a81549073ffffffffffffffffffffffffffffffffffffffff02191690556001820160006101000a81549073ffffffffffffffffffffffffffffffffffffffff02191690556002820160009055600382016000905550600401611133565b5090565b6000819050919050565b6111ba816111a7565b82525050565b60006020820190506111d560008301846111b1565b92915050565b600080fd5b6111e9816111a7565b81146111f457600080fd5b50565b600081359050611206816111e0565b92915050565b600060208284031215611222576112216111db565b5b6000611230848285016111f7565b91505092915050565b600073ffffffffffffffffffffffffffffffffffffffff82169050919050565b600061126482611239565b9050919050565b61127481611259565b82525050565b600060808201905061128f600083018761126b565b61129c602083018661126b565b6112a960408301856111b1565b6112b660608301846111b1565b95945050505050565b60006020820190506112d4600083018461126b565b92915050565b60006112e582611239565b9050919050565b6112f5816112da565b811461130057600080fd5b50565b600081359050611312816112ec565b92915050565b600080600060608486031215611331576113306111db565b5b600061133f86828701611303565b9350506020611350868287016111f7565b9250506040611361868287016111f7565b9150509250925092565b600081519050919050565b600082825260208201905092915050565b6000819050602082019050919050565b6113a0816112da565b82525050565b60006113b28383611397565b60208301905092915050565b6000602082019050919050565b60006113d68261136b565b6113e08185611376565b93506113eb83611387565b8060005b8381101561141c57815161140388826113a6565b975061140e836113be565b9250506001810190506113ef565b5085935050505092915050565b6000602082019050818103600083015261144381846113cb565b905092915050565b61145481611259565b811461145f57600080fd5b50565b6000813590506114718161144b565b92915050565b60006020828403121561148d5761148c6111db565b5b600061149b84828501611462565b91505092915050565b60008115159050919050565b6114b9816114a4565b82525050565b60006020820190506114d460008301846114b0565b92915050565b6114e3816112da565b82525050565b60006020820190506114fe60008301846114da565b92915050565b600082825260208201905092915050565b7f4e6f7420656e6f75676820746f6b656e73000000000000000000000000000000600082015250565b600061154b601183611504565b915061155682611515565b602082019050919050565b6000602082019050818103600083015261157a8161153e565b9050919050565b7f4e487b7100000000000000000000000000000000000000000000000000000000600052601160045260246000fd5b60006115bb826111a7565b91506115c6836111a7565b92508282026115d4816111a7565b915082820484148315176115eb576115ea611581565b5b5092915050565b7f436f6e74726163742062616c616e636520697320696e73756666696369656e74600082015250565b6000611628602083611504565b9150611633826115f2565b602082019050919050565b600060208201905081810360008301526116578161161b565b9050919050565b6000611669826111a7565b9150611674836111a7565b925082820390508181111561168c5761168b611581565b5b92915050565b7f696e73756666696369656e742066756e64730000000000000000000000000000600082015250565b60006116c8601283611504565b91506116d382611692565b602082019050919050565b600060208201905081810360008301526116f7816116bb565b9050919050565b6000611709826111a7565b9150611714836111a7565b925082820190508082111561172c5761172b611581565b5b92915050565b7f4d616e61676572206f6e6c792061726561000000000000000000000000000000600082015250565b6000611768601183611504565b915061177382611732565b602082019050919050565b600060208201905081810360008301526117978161175b565b9050919050565b7f4e6f20706c617965727320696e2074686520636f6d7065746974696f6e000000600082015250565b60006117d4601d83611504565b91506117df8261179e565b602082019050919050565b60006020820190508181036000830152611803816117c7565b9050919050565b7f4e487b7100000000000000000000000000000000000000000000000000000000600052601260045260246000fd5b6000611844826111a7565b915061184f836111a7565b92508261185f5761185e61180a565b5b828206905092915050565b6000611875826111a7565b9150611880836111a7565b9250826118905761188f61180a565b5b828204905092915050565b7f4e487b7100000000000000000000000000000000000000000000000000000000600052603260045260246000fd5b60006118d5826111a7565b91507fffffffffffffffffffffffffffffffffffffffffffffffffffffffffffffffff820361190757611906611581565b5b600182019050919050565b7f496e73756666696369656e742062657420616d6f756e74000000000000000000600082015250565b6000611948601783611504565b915061195382611912565b602082019050919050565b600060208201905081810360008301526119778161193b565b9050919050565b7f496e76616c69642062657420616d6f756e740000000000000000000000000000600082015250565b60006119b4601283611504565b91506119bf8261197e565b602082019050919050565b600060208201905081810360008301526119e3816119a7565b9050919050565b7f42657420616c726561647920706c616365642100000000000000000000000000600082015250565b6000611a20601383611504565b9150611a2b826119ea565b602082019050919050565b60006020820190508181036000830152611a4f81611a13565b9050919050565b60008160601b9050919050565b6000611a6e82611a56565b9050919050565b6000611a8082611a63565b9050919050565b611a98611a9382611259565b611a75565b82525050565b6000819050919050565b611ab9611ab4826111a7565b611a9e565b82525050565b6000611acb8285611a87565b601482019150611adb8284611aa8565b602082019150819050939250505056fea264697066735822122073af02cb4c905e6286216b0218f88db1377ad1d29c062dd69b04b1544967460364736f6c63430008130033",
    "linkReferences": {},
    "deployedLinkReferences": {}
}